{
  "_format": "hh-sol-artifact-1",
  "contractName": "TestToken",
  "sourceName": "contracts/Token.sol",
  "abi": [
    {
      "inputs": [],
      "stateMutability": "nonpayable",
      "type": "constructor"
    },
    {
      "inputs": [
        {
          "internalType": "address",
          "name": "spender",
          "type": "address"
        },
        {
          "internalType": "uint256",
          "name": "allowance",
          "type": "uint256"
        },
        {
          "internalType": "uint256",
          "name": "needed",
          "type": "uint256"
        }
      ],
      "name": "ERC20InsufficientAllowance",
      "type": "error"
    },
    {
      "inputs": [
        {
          "internalType": "address",
          "name": "sender",
          "type": "address"
        },
        {
          "internalType": "uint256",
          "name": "balance",
          "type": "uint256"
        },
        {
          "internalType": "uint256",
          "name": "needed",
          "type": "uint256"
        }
      ],
      "name": "ERC20InsufficientBalance",
      "type": "error"
    },
    {
      "inputs": [
        {
          "internalType": "address",
          "name": "approver",
          "type": "address"
        }
      ],
      "name": "ERC20InvalidApprover",
      "type": "error"
    },
    {
      "inputs": [
        {
          "internalType": "address",
          "name": "receiver",
          "type": "address"
        }
      ],
      "name": "ERC20InvalidReceiver",
      "type": "error"
    },
    {
      "inputs": [
        {
          "internalType": "address",
          "name": "sender",
          "type": "address"
        }
      ],
      "name": "ERC20InvalidSender",
      "type": "error"
    },
    {
      "inputs": [
        {
          "internalType": "address",
          "name": "spender",
          "type": "address"
        }
      ],
      "name": "ERC20InvalidSpender",
      "type": "error"
    },
    {
      "anonymous": false,
      "inputs": [
        {
          "indexed": true,
          "internalType": "address",
          "name": "owner",
          "type": "address"
        },
        {
          "indexed": true,
          "internalType": "address",
          "name": "spender",
          "type": "address"
        },
        {
          "indexed": false,
          "internalType": "uint256",
          "name": "value",
          "type": "uint256"
        }
      ],
      "name": "Approval",
      "type": "event"
    },
    {
      "anonymous": false,
      "inputs": [
        {
          "indexed": true,
          "internalType": "address",
          "name": "from",
          "type": "address"
        },
        {
          "indexed": true,
          "internalType": "address",
          "name": "to",
          "type": "address"
        },
        {
          "indexed": false,
          "internalType": "uint256",
          "name": "value",
          "type": "uint256"
        }
      ],
      "name": "Transfer",
      "type": "event"
    },
    {
      "inputs": [
        {
          "internalType": "address",
          "name": "owner",
          "type": "address"
        },
        {
          "internalType": "address",
          "name": "spender",
          "type": "address"
        }
      ],
      "name": "allowance",
      "outputs": [
        {
          "internalType": "uint256",
          "name": "",
          "type": "uint256"
        }
      ],
      "stateMutability": "view",
      "type": "function"
    },
    {
      "inputs": [
        {
          "internalType": "address",
          "name": "spender",
          "type": "address"
        },
        {
          "internalType": "uint256",
          "name": "value",
          "type": "uint256"
        }
      ],
      "name": "approve",
      "outputs": [
        {
          "internalType": "bool",
          "name": "",
          "type": "bool"
        }
      ],
      "stateMutability": "nonpayable",
      "type": "function"
    },
    {
      "inputs": [
        {
          "internalType": "address",
          "name": "account",
          "type": "address"
        }
      ],
      "name": "balanceOf",
      "outputs": [
        {
          "internalType": "uint256",
          "name": "",
          "type": "uint256"
        }
      ],
      "stateMutability": "view",
      "type": "function"
    },
    {
      "inputs": [],
      "name": "burn100tokens",
      "outputs": [],
      "stateMutability": "nonpayable",
      "type": "function"
    },
    {
      "inputs": [],
      "name": "decimals",
      "outputs": [
        {
          "internalType": "uint8",
          "name": "",
          "type": "uint8"
        }
      ],
      "stateMutability": "view",
      "type": "function"
    },
    {
      "inputs": [],
      "name": "mint100tokens",
      "outputs": [],
      "stateMutability": "nonpayable",
      "type": "function"
    },
    {
      "inputs": [],
      "name": "name",
      "outputs": [
        {
          "internalType": "string",
          "name": "",
          "type": "string"
        }
      ],
      "stateMutability": "view",
      "type": "function"
    },
    {
      "inputs": [],
      "name": "symbol",
      "outputs": [
        {
          "internalType": "string",
          "name": "",
          "type": "string"
        }
      ],
      "stateMutability": "view",
      "type": "function"
    },
    {
      "inputs": [],
      "name": "totalSupply",
      "outputs": [
        {
          "internalType": "uint256",
          "name": "",
          "type": "uint256"
        }
      ],
      "stateMutability": "view",
      "type": "function"
    },
    {
      "inputs": [
        {
          "internalType": "address",
          "name": "to",
          "type": "address"
        },
        {
          "internalType": "uint256",
          "name": "value",
          "type": "uint256"
        }
      ],
      "name": "transfer",
      "outputs": [
        {
          "internalType": "bool",
          "name": "",
          "type": "bool"
        }
      ],
      "stateMutability": "nonpayable",
      "type": "function"
    },
    {
      "inputs": [
        {
          "internalType": "address",
          "name": "from",
          "type": "address"
        },
        {
          "internalType": "address",
          "name": "to",
          "type": "address"
        },
        {
          "internalType": "uint256",
          "name": "value",
          "type": "uint256"
        }
      ],
      "name": "transferFrom",
      "outputs": [
        {
          "internalType": "bool",
          "name": "",
          "type": "bool"
        }
      ],
      "stateMutability": "nonpayable",
      "type": "function"
    }
  ],
  "bytecode": "0x60806040523480156200001157600080fd5b506040518060400160405280600d81526020017f6767537769737374726f6e696b000000000000000000000000000000000000008152506040518060400160405280600681526020017f676753575452000000000000000000000000000000000000000000000000000081525081600390816200008f919062000324565b508060049081620000a1919062000324565b5050506200040b565b600081519050919050565b7f4e487b7100000000000000000000000000000000000000000000000000000000600052604160045260246000fd5b7f4e487b7100000000000000000000000000000000000000000000000000000000600052602260045260246000fd5b600060028204905060018216806200012c57607f821691505b602082108103620001425762000141620000e4565b5b50919050565b60008190508160005260206000209050919050565b60006020601f8301049050919050565b600082821b905092915050565b600060088302620001ac7fffffffffffffffffffffffffffffffffffffffffffffffffffffffffffffffff826200016d565b620001b886836200016d565b95508019841693508086168417925050509392505050565b6000819050919050565b6000819050919050565b600062000205620001ff620001f984620001d0565b620001da565b620001d0565b9050919050565b6000819050919050565b6200022183620001e4565b6200023962000230826200020c565b8484546200017a565b825550505050565b600090565b6200025062000241565b6200025d81848462000216565b505050565b5b8181101562000285576200027960008262000246565b60018101905062000263565b5050565b601f821115620002d4576200029e8162000148565b620002a9846200015d565b81016020851015620002b9578190505b620002d1620002c8856200015d565b83018262000262565b50505b505050565b600082821c905092915050565b6000620002f960001984600802620002d9565b1980831691505092915050565b6000620003148383620002e6565b9150826002028217905092915050565b6200032f82620000aa565b67ffffffffffffffff8111156200034b576200034a620000b5565b5b62000357825462000113565b6200036482828562000289565b600060209050601f8311600181146200039c576000841562000387578287015190505b62000393858262000306565b86555062000403565b601f198416620003ac8662000148565b60005b82811015620003d657848901518255600182019150602085019450602081019050620003af565b86831015620003f65784890151620003f2601f891682620002e6565b8355505b6001600288020188555050505b505050505050565b610fa5806200041b6000396000f3fe608060405234801561001057600080fd5b50600436106100a95760003560e01c806332c5e6271161007157806332c5e627146101685780633843971a1461017257806370a082311461017c57806395d89b41146101ac578063a9059cbb146101ca578063dd62ed3e146101fa576100a9565b806306fdde03146100ae578063095ea7b3146100cc57806318160ddd146100fc57806323b872dd1461011a578063313ce5671461014a575b600080fd5b6100b661022a565b6040516100c39190610bf9565b60405180910390f35b6100e660048036038101906100e19190610cb4565b6102bc565b6040516100f39190610d0f565b60405180910390f35b6101046102df565b6040516101119190610d39565b60405180910390f35b610134600480360381019061012f9190610d54565b6102e9565b6040516101419190610d0f565b60405180910390f35b610152610318565b60405161015f9190610dc3565b60405180910390f35b610170610321565b005b61017a61032e565b005b61019660048036038101906101919190610dde565b610343565b6040516101a39190610d39565b60405180910390f35b6101b461038b565b6040516101c19190610bf9565b60405180910390f35b6101e460048036038101906101df9190610cb4565b61041d565b6040516101f19190610d0f565b60405180910390f35b610214600480360381019061020f9190610e0b565b610440565b6040516102219190610d39565b60405180910390f35b60606003805461023990610e7a565b80601f016020809104026020016040519081016040528092919081815260200182805461026590610e7a565b80156102b25780601f10610287576101008083540402835291602001916102b2565b820191906000526020600020905b81548152906001019060200180831161029557829003601f168201915b5050505050905090565b6000806102c76104c7565b90506102d48185856104cf565b600191505092915050565b6000600254905090565b6000806102f46104c7565b90506103018582856104e1565b61030c858585610575565b60019150509392505050565b60006012905090565b61032c336064610669565b565b6103413368056bc75e2d631000006106eb565b565b60008060008373ffffffffffffffffffffffffffffffffffffffff1673ffffffffffffffffffffffffffffffffffffffff168152602001908152602001600020549050919050565b60606004805461039a90610e7a565b80601f01602080910402602001604051908101604052809291908181526020018280546103c690610e7a565b80156104135780601f106103e857610100808354040283529160200191610413565b820191906000526020600020905b8154815290600101906020018083116103f657829003601f168201915b5050505050905090565b6000806104286104c7565b9050610435818585610575565b600191505092915050565b6000600160008473ffffffffffffffffffffffffffffffffffffffff1673ffffffffffffffffffffffffffffffffffffffff16815260200190815260200160002060008373ffffffffffffffffffffffffffffffffffffffff1673ffffffffffffffffffffffffffffffffffffffff16815260200190815260200160002054905092915050565b600033905090565b6104dc838383600161076d565b505050565b60006104ed8484610440565b90507fffffffffffffffffffffffffffffffffffffffffffffffffffffffffffffffff811461056f578181101561055f578281836040517ffb8f41b200000000000000000000000000000000000000000000000000000000815260040161055693929190610eba565b60405180910390fd5b61056e8484848403600061076d565b5b50505050565b600073ffffffffffffffffffffffffffffffffffffffff168373ffffffffffffffffffffffffffffffffffffffff16036105e75760006040517f96c6fd1e0000000000000000000000000000000000000000000000000000000081526004016105de9190610ef1565b60405180910390fd5b600073ffffffffffffffffffffffffffffffffffffffff168273ffffffffffffffffffffffffffffffffffffffff16036106595760006040517fec442f050000000000000000000000000000000000000000000000000000000081526004016106509190610ef1565b60405180910390fd5b610664838383610944565b505050565b600073ffffffffffffffffffffffffffffffffffffffff168273ffffffffffffffffffffffffffffffffffffffff16036106db5760006040517fec442f050000000000000000000000000000000000000000000000000000000081526004016106d29190610ef1565b60405180910390fd5b6106e760008383610944565b5050565b600073ffffffffffffffffffffffffffffffffffffffff168273ffffffffffffffffffffffffffffffffffffffff160361075d5760006040517f96c6fd1e0000000000000000000000000000000000000000000000000000000081526004016107549190610ef1565b60405180910390fd5b61076982600083610944565b5050565b600073ffffffffffffffffffffffffffffffffffffffff168473ffffffffffffffffffffffffffffffffffffffff16036107df5760006040517fe602df050000000000000000000000000000000000000000000000000000000081526004016107d69190610ef1565b60405180910390fd5b600073ffffffffffffffffffffffffffffffffffffffff168373ffffffffffffffffffffffffffffffffffffffff16036108515760006040517f94280d620000000000000000000000000000000000000000000000000000000081526004016108489190610ef1565b60405180910390fd5b81600160008673ffffffffffffffffffffffffffffffffffffffff1673ffffffffffffffffffffffffffffffffffffffff16815260200190815260200160002060008573ffffffffffffffffffffffffffffffffffffffff1673ffffffffffffffffffffffffffffffffffffffff16815260200190815260200160002081905550801561093e578273ffffffffffffffffffffffffffffffffffffffff168473ffffffffffffffffffffffffffffffffffffffff167f8c5be1e5ebec7d5bd14f71427d1e84f3dd0314c0f7b2291e5b200ac8c7c3b925846040516109359190610d39565b60405180910390a35b50505050565b600073ffffffffffffffffffffffffffffffffffffffff168373ffffffffffffffffffffffffffffffffffffffff160361099657806002600082825461098a9190610f3b565b92505081905550610a69565b60008060008573ffffffffffffffffffffffffffffffffffffffff1673ffffffffffffffffffffffffffffffffffffffff16815260200190815260200160002054905081811015610a22578381836040517fe450d38c000000000000000000000000000000000000000000000000000000008152600401610a1993929190610eba565b60405180910390fd5b8181036000808673ffffffffffffffffffffffffffffffffffffffff1673ffffffffffffffffffffffffffffffffffffffff16815260200190815260200160002081905550505b600073ffffffffffffffffffffffffffffffffffffffff168273ffffffffffffffffffffffffffffffffffffffff1603610ab25780600260008282540392505081905550610aff565b806000808473ffffffffffffffffffffffffffffffffffffffff1673ffffffffffffffffffffffffffffffffffffffff168152602001908152602001600020600082825401925050819055505b8173ffffffffffffffffffffffffffffffffffffffff168373ffffffffffffffffffffffffffffffffffffffff167fddf252ad1be2c89b69c2b068fc378daa952ba7f163c4a11628f55a4df523b3ef83604051610b5c9190610d39565b60405180910390a3505050565b600081519050919050565b600082825260208201905092915050565b60005b83811015610ba3578082015181840152602081019050610b88565b60008484015250505050565b6000601f19601f8301169050919050565b6000610bcb82610b69565b610bd58185610b74565b9350610be5818560208601610b85565b610bee81610baf565b840191505092915050565b60006020820190508181036000830152610c138184610bc0565b905092915050565b600080fd5b600073ffffffffffffffffffffffffffffffffffffffff82169050919050565b6000610c4b82610c20565b9050919050565b610c5b81610c40565b8114610c6657600080fd5b50565b600081359050610c7881610c52565b92915050565b6000819050919050565b610c9181610c7e565b8114610c9c57600080fd5b50565b600081359050610cae81610c88565b92915050565b60008060408385031215610ccb57610cca610c1b565b5b6000610cd985828601610c69565b9250506020610cea85828601610c9f565b9150509250929050565b60008115159050919050565b610d0981610cf4565b82525050565b6000602082019050610d246000830184610d00565b92915050565b610d3381610c7e565b82525050565b6000602082019050610d4e6000830184610d2a565b92915050565b600080600060608486031215610d6d57610d6c610c1b565b5b6000610d7b86828701610c69565b9350506020610d8c86828701610c69565b9250506040610d9d86828701610c9f565b9150509250925092565b600060ff82169050919050565b610dbd81610da7565b82525050565b6000602082019050610dd86000830184610db4565b92915050565b600060208284031215610df457610df3610c1b565b5b6000610e0284828501610c69565b91505092915050565b60008060408385031215610e2257610e21610c1b565b5b6000610e3085828601610c69565b9250506020610e4185828601610c69565b9150509250929050565b7f4e487b7100000000000000000000000000000000000000000000000000000000600052602260045260246000fd5b60006002820490506001821680610e9257607f821691505b602082108103610ea557610ea4610e4b565b5b50919050565b610eb481610c40565b82525050565b6000606082019050610ecf6000830186610eab565b610edc6020830185610d2a565b610ee96040830184610d2a565b949350505050565b6000602082019050610f066000830184610eab565b92915050565b7f4e487b7100000000000000000000000000000000000000000000000000000000600052601160045260246000fd5b6000610f4682610c7e565b9150610f5183610c7e565b9250828201905080821115610f6957610f68610f0c565b5b9291505056fea264697066735822122035bff776e36597946f14a87a253d4b7b4f7fe1dafcd1de21e864869fad81c6e064736f6c63430008140033",
  "linkReferences": {},
  "deployedLinkReferences": {}
}